:020000040800F2
:10000000900800205D010008A1090008D50600083D
:100010009D09000871020008871F00080000000009
:10002000000000000000000000000000391500087A
:10003000F102000800000000D10A0008551700086E
:1000400077010008770100087701000831110008E6
:1000500077010008770100087701000877010008A0
:100060007701000877010008770100087701000890
:100070007701000877010008770100087701000880
:100080007701000877010008770100087701000870
:100090007701000877010008770100087701000860
:1000A0007701000877010008770100087701000850
:1000B0006D18000877010008770100087701000833
:1000C0007701000877010008770100087701000830
:1000D000770100080D1D000877010008770100086E
:1000E000050400087701000877010008770100087F
:1000F0007701000877010008770100087701000800
:1001000077010008770100087701000877010008EF
:1001100077010008770100087701000877010008DF
:1001200077010008770100087701000877010008CF
:10013000DFF80CD000F03AF80048004779230008B7
:10014000900800204DF8041D4FF0120100FB01F053
:10015000A0F103000138FDD102BC7047064880477A
:1001600006480047FEE7FEE7FEE7FEE7FEE7FEE79C
:10017000FEE7FEE7FEE7FEE7BD17000831010008D5
:1001800030B50B46014600202022012409E021FA67
:1001900002F59D4205D303FA02F5491B04FA02F564
:1001A0002844151EA2F10102F1DC30BD064C074DBA
:1001B00006E0E06840F0010394E807009847103437
:1001C000AC42F6D3FFF7B8FFD8260008F82600089F
:1001D00070B58C1810F8015B15F0070301D110F809
:1001E000013B2A1106D110F8012B03E010F8016B36
:1001F00001F8016B5B1EF9D12B0705D40023521EB9
:100200000DD401F8013BFAE710F8013BCB1A921C20
:1002100003E013F8015B01F8015B521EF9D5A1421E
:10022000D8D3002070BD10B5012000F093FC002051
:1002300000F090FC10BD000008B5014600200090C1
:10024000034800900098084400900098008808BD7A
:10025000006C004008B500220092044A0092009A07
:1002600002440092009A116008BD0000006C00403A
:1002700000BFFEE708B50121042000F04BFC4FF45D
:100280008070ADF8000010208DF8030003208DF879
:1002900002006946044800F085F94FF48071024875
:1002A00000F016FA08BD00000008014008B54FF440
:1002B0008070ADF8000048208DF8030069460248C0
:1002C00000F070F908BD00000008014008B54FF4C7
:1002D0008070ADF8000010208DF8030003208DF829
:1002E00002006946014800F05DF908BD00080140C0
:1002F0007047000001B504490098086000BF02483B
:1003000000680028FBD108BD6C0200202DE9F047F1
:100310000746884691469A4600246BE000256420F3
:1003200097FBF0F100FB11700A2190FBF1F004EB58
:1003300000103249085C05432D020A2097FBF0F1BA
:1003400000FB117004EB00102C49085C05432D02E2
:10035000642098FBF0F100FB11800A2190FBF1F082
:1003600004EB00102549085C05432D020A2098FB88
:10037000F0F100FB118004EB00102049085C0543FC
:100380000026642099FBF0F100FB11900A2190FBFC
:10039000F1F004EB00101949085C064336020A200C
:1003A00099FBF0F100FB119004EB00101349085C7D
:1003B0000643360264209AFBF0F100FB11A00A21EB
:1003C00090FBF1F004EB00100C49085C0643360288
:1003D0000A209AFBF0F100FB11A004EB0010074982
:1003E000085C0643064805604660204600F072FC43
:1003F000601CC4B2102C91DBBDE8F087C80100205E
:100400003000002010B54FF4005000F04DF898B1C6
:100410004FF400710F4800F059F90F480078401C64
:100420000D490870084600780A2801DD0020087090
:100430004FF4005000F018F8002408E000200749AD
:1004400008550749085507490855601CC4B2802C57
:10045000F4DB10BD001001402800002078020020CD
:10046000F80200207803002001490860704700006E
:10047000140401401CB50121084600F04BFB0D217E
:10048000022000F06FF84FF40050009000208DF82B
:1004900004000C208DF8050001208DF80600684648
:1004A00000F016F81CBD0000014600200022074B9A
:1004B0001B6803EA0102054B14331B680B4013B1A0
:1004C0000AB1012000E00020704700000004014054
:1004D000002123498279002A3AD00A46126803682B
:1004E0009A430B461A600A1D126803689A430B1D53
:1004F0001A60027911440A6803681A430A60184AAC
:100500000832126803689A43154B08331A601A1DA3
:10051000126803689A43124B0C331A604279102A0E
:100520000ED11A1F126803681A430D4B08331A6064
:100530001A1D126803681A43094B0C331A600DE048
:100540000749427911440A6803681A430A6005E0C2
:10055000027911440A6803689A430A6070470000F0
:100560000004014030B500228B071C0F0F2303FA53
:1005700004F20B4B8C1053F824309343084C8D102D
:1005800044F8253023468C1053F824308C07240F70
:1005900000FA04F42343024C8D1044F8253030BD9A
:1005A000080001402DE9F041024600250026002008
:1005B00000230024002791F803C00CF00F0591F8E8
:1005C00003C00CF0100CBCF1000F03D091F802C076
:1005D0004CEA050591F800C0BCF1000F31D0146859
:1005E00000202BE04FF0010C0CFA00F3B1F800C032
:1005F0000CEA03069E4220D183004FF00F0C0CFA48
:1006000003F7BC4305FA03FC4CEA040491F803C069
:10061000BCF1280F06D14FF0010C0CFA00FCC2F817
:1006200014C00AE091F803C0BCF1480F05D14FF0A7
:10063000010C0CFA00FCC2F810C0401C0828D1D3F1
:100640001460B1F800C0BCF1FF0F34DD5468002025
:100650002EE000F1080C4FF0010808FA0CF3B1F895
:1006600000C00CEA03069E4221D183004FF00F0C1C
:100670000CFA03F7BC4305FA03FC4CEA040491F8B6
:1006800003C0BCF1280F05D100F1080C08FA0CF8E2
:10069000C2F8148091F803C0BCF1480F07D100F1F3
:1006A000080C4FF0010808FA0CF8C2F81080401C42
:1006B0000828CED35460BDE8F0810246002093683C
:1006C0000B400BB1012000E00020704741617047F2
:1006D0000161704700BFFEE721B1028842F48062E9
:1006E000028004E002884FF6FF331A400280704710
:1006F00021B1028842F00102028004E002884FF634
:10070000FE731A400280704710B500F009F800F03F
:1007100097F8A0200149088010BD00002A000020A1
:1007200008B50121082000F0F5F90121480500F085
:10073000D1F9C020ADF8000003208DF802001C2084
:100740008DF8030069460248FFF72CFF08BD000042
:10075000000C01402DE9F04385B004460D4600260B
:10076000B1460427DFF8CC80A6884FF6C07006405B
:10077000684600F0FFF9DDF808802F48B8FBF0F07C
:100780001FFA80F946EA0906A68020884FF6FE7116
:100790000840208000262949286888420CD828680B
:1007A0004000B8FBF0F087B2042F00DA04273E4384
:1007B00009F10100208427E0E8884BF6FF718842A8
:1007C00006D1286800EB4000B8FBF0F087B209E0E2
:1007D000286800EBC00101EB0010B8FBF0F087B215
:1007E00047F48047C7F30B0008B947F0010747F407
:1007F000004006434FF4967009FB00F04FF47A7105
:1008000090FBF1F0401C2084A683208840F001007A
:10081000208026884FF6F5300640A888698908436D
:1008200006432680A88929890843208105B0BDE8B0
:10083000F083000000127A0040420F00A086010001
:100840001FB50020ADF804004BF6FF70ADF80600B0
:10085000A020ADF808004FF48060ADF80A00000158
:10086000ADF80C000748009001210748FFF740FF52
:1008700069460548FFF76EFF01210348FFF72CFF8B
:100880001FBD0000801A0600005400401FB5012162
:100890001C2000F03FF90420ADF80C0010208DF86A
:1008A0000F0002208DF80E0003A93948FFF77AFEE9
:1008B0004FF47050ADF8080010208DF80B000320A5
:1008C0008DF80A0002A93348FFF76CFE41F2FF30B1
:1008D000ADF8040010208DF8070003208DF8060005
:1008E00001A92D48FFF75EFE4FF40050ADF800005F
:1008F00048208DF8030069462748FFF753FE802102
:100900002548FFF7E5FE40212348FFF7DFFE4FF4BF
:1009100000512048FFF7DAFE10211F48FFF7D6FEEE
:100920004FF480611B48FFF7D1FE20211A48FFF7E2
:10093000CDFE01211848FFF7C9FE04211648FFF734
:10094000C5FE4FF400611348FFF7C0FE4FF480511D
:100950001048FFF7BBFE02210F48FFF7B7FE082142
:100960000D48FFF7B3FE04210948FFF7B1FE4FF42D
:1009700080710948FFF7ACFE4FF400710648FFF79D
:10098000A7FE4FF480510448FFF7A2FE1FBD0000F0
:1009900000080140000C01400010014000BFFEE7CC
:1009A000704708B54FF4C06000F082F828208DF839
:1009B000000000208DF8010001208DF802008DF864
:1009C0000300684600F03CF825208DF80000002068
:1009D0008DF801008DF8020001208DF803006846B3
:1009E00000F02EF81C208DF8000000208DF801008A
:1009F00001208DF802008DF80300684600F020F811
:100A000003208DF8000001208DF8010000208DF8F2
:100A1000020001208DF80300684600F011F825203F
:100A20008DF8000000208DF8010002208DF80200F2
:100A300001208DF80300684600F002F808BD0000B0
:100A400070B5002100230F22C47804B3154C24682C
:100A500004F4E064C4F5E064210AC1F10403CA406F
:100A6000447804FA03F184781440214309010E4CC0
:100A70000678A155047804F01F050124AC400578E0
:100A80006D11AD0005F1E025C5F8004109E00478DD
:100A900004F01F050124AC40044D0678761145F89A
:100AA000264070BD0CED00E000E400E080E100E0D5
:100AB00002490143024A1160704700000000FA0534
:100AC0000CED00E0014908627047000000000E4292
:100AD0007047000029B1064AD2690243044BDA612B
:100AE00004E0034AD2698243014BDA617047000097
:100AF0000010024029B1064A12690243044B1A61F0
:100B000004E0034A12698243014B1A6170470000F6
:100B10000010024029B1064A92690243044B9A61CF
:100B200004E0034A92698243014B9A6170470000D6
:100B30000010024029B1064AD2680243044BDA6031
:100B400004E0034AD2688243014BDA607047000038
:100B50000010024001490860704700004004424212
:100B60000348406A40F080700149486270470000C5
:100B70000010024030B500210022002400232D4D3A
:100B80006D6805F00C0121B1042905D0082923D195
:100B900005E0294D056022E0274D05601FE0254D49
:100BA0006D6805F47012234D6D6805F480340225DC
:100BB00005EB92421CB9214D554305600BE01D4DDC
:100BC0006D6805F400351DB11C4D5543056002E00C
:100BD000194D5543056002E0174D056000BF00BF89
:100BE000144D6D6805F0F0010909154D6B5C056841
:100BF000DD4045600F4D6D6805F4E061090A104D58
:100C00006B5C4568DD4085600A4D6D6805F4605198
:100C1000C90A0B4D6B5C4568DD40C560054D6D68CC
:100C200005F44041890B074D6B5CC568B5FBF3F5D6
:100C3000056130BD0010024000127A0000093D003D
:100C4000000000201000002010B501460022002303
:100C500000204A11012A02D1094C236806E0022A29
:100C600002D1074C236A01E0054C636A01F01F02C0
:100C7000012494401C400CB1012000E0002010BD74
:100C80000010024000210B4A11700A4A203A82F8F3
:100C90002010012802D0042808D103E00121054AD0
:100CA000117004E00521034A117000E000BF00BF8D
:100CB00070470000201002400149086070470000A2
:100CC0003C0442420249096A0143014A11627047E9
:100CD000001002402DE9F0410546002441F288371A
:100CE000092D01DA012600E0002600240DE0904BDA
:100CF00053F824208F4B53F824108F4B53F82400C3
:100D0000334600F01FF9601CC4B2022CEFDB8021D7
:100D10008A48FFF7DDFC4FF400518948FFF7D8FC03
:100D20004FF400518648FFF7D1FC112D7AD2DFE84D
:100D300005F0EA0941255D174F336B7AB296CE88EC
:100D4000C0A4DC0010217D48FFF7C0FC4FF4806197
:100D50007B48FFF7BBFC20217848FFF7B7FCD7E0C2
:100D600010217648FFF7B2FC4FF480617448FFF71A
:100D7000ADFC20217148FFF7ABFCC9E010216F48A2
:100D8000FFF7A4FC4FF480616D48FFF7A1FC202120
:100D90006A48FFF79BFCBBE010216848FFF796FC10
:100DA0004FF480616648FFF793FC20216348FFF70A
:100DB0008FFCADE010216148FFF78AFC4FF48061A1
:100DC0005F48FFF783FC20215C48FFF77FFC9FE032
:100DD00010215A48FFF77CFC4FF480615848FFF718
:100DE00075FC20215548FFF773FC91E01021534812
:100DF000FFF76EFC4FF480615148FFF769FC20213A
:100E00004E48FFF763FC83E010214C48FFF760FC7D
:100E10004FF480614A48FFF75BFC20214748FFF709
:100E200057FC75E06FE010214448FFF74FFC4FF48A
:100E300080614348FFF74AFC20214048FFF746FC09
:100E400066E010213D48FFF741FC4FF480613C48CB
:100E5000FFF73CFC20213948FFF73AFC58E010210D
:100E60003648FFF733FC4FF480613548FFF730FC1C
:100E700020213248FFF72AFC4AE010212F48FFF7D3
:100E800025FC4FF480612E48FFF722FC20212B48DF
:100E9000FFF71EFC3CE010212848FFF719FC4FF437
:100EA00080612748FFF712FC20212448FFF70EFC41
:100EB0002EE010212148FFF70BFC4FF48061204801
:100EC000FFF704FC20211D48FFF702FC20E0102161
:100ED0001A48FFF7FDFB4FF480611948FFF7F8FB54
:100EE00020211648FFF7F2FB12E010211348FFF70C
:100EF000EFFB4FF480611248FFF7EAFB20210F4817
:100F0000FFF7E6FB04E080210C48FFF7E1FB00BFA0
:100F100000BF80210948FFF7D9FB01E0781E87B2A6
:100F2000002FFBD180210548FFF7D2FBBDE8F081FF
:100F30004000002038000020300000200010014058
:100F4000000C01402DE9F05F8046894692469B46A1
:100F500045464E46574640214148FFF7B7FBBBF197
:100F6000000F3DD0002438E005F00040B0F1004F04
:100F700004D101213A48FFF7ABFB03E001213848D7
:100F8000FFF7A4FB06F00040B0F1004F05D14FF48D
:100F900000613448FFF79CFB04E04FF400613148E6
:100FA000FFF794FB07F00040B0F1004F04D102219D
:100FB0002B48FFF78DFB03E002212948FFF786FB52
:100FC0006D0076007F0040212548FFF781FB40211E
:100FD0002348FFF77BFB601CC4B2202CC4DB3CE041
:100FE000002438E005F00040B0F1004F04D10421A6
:100FF0001B48FFF76DFB03E004211948FFF766FB70
:1010000006F00040B0F1004F05D14FF48051154873
:10101000FFF75EFB04E04FF480511248FFF756FBE8
:1010200007F00040B0F1004F04D108210C48FFF751
:101030004FFB03E008210A48FFF748FB6D007600EC
:101040007F0040210648FFF743FB40210448FFF79B
:101050003DFB601CC4B2202CC4DBBDE8F09F000047
:1010600000100140000C0140024909888143014AF7
:10107000118070470428004010B501214FF0C05086
:10108000FFF728FD0120FFF71DFDFFF7CCF8012039
:10109000FFF7F8FD00BF4120FFF7D6FD0028FAD08A
:1010A0004FF48070FFF70EFE0120FFF705FE00F001
:1010B0008FF800F083F80121084600F051F800F0A5
:1010C0007DF847F6FF7000F069F800F077F810BD82
:1010D0000348008840F01000014908807047000074
:1010E00004280040034800884FF6EF71084001498A
:1010F0000880704704280040002103480188001F31
:10110000008841EA004070471C280040014600204A
:10111000064A12880A40D0B2044A121F12880A40B6
:1011200012B108B1012000E00020704704280040FF
:1011300010B50120FFF7EAFF70B10120FFF794FF1F
:1011400000F03CF8FFF7D8FF0449884204D10020A2
:1011500000F016F800F032F810BD00007F510100D9
:1011600029B1064A12880243044B1A8004E0034A5C
:1011700012888243014B1A8070470000002800400B
:1011800000B50246FFF7A4FF100C03490880091DB3
:101190000A80FFF7A7FF00BD1828004000B50246EF
:1011A000FFF796FFC2F3034003490880091D0A8038
:1011B000FFF798FF00BD00000828004000BF03486B
:1011C000008800F020000028F9D070470428004073
:1011D000074800884FF6F77108400549088000BFAE
:1011E0000348008800F008000028F9D0704700008C
:1011F0000428004070B50025002427E000BF4FF40C
:1012000080711448FFF759FA0028F8D02820FEF71B
:1012100099FF4FF480710F48FFF74FFA01280ED164
:1012200000BF4FF480710B48FFF747FA0128F8D050
:10123000C4F1070101208840C0B2054304E0C4F1B5
:101240000701012088408543601CC4B2082CD5DB0F
:10125000284670BD0008014010B50446FFF736F877
:101260004FF480712648FFF731FA1220FFF742F859
:101270004FF480712248FFF72BFA1E20FEF762FF21
:10128000FFF714F84FF480711D48FFF716FA88BB7A
:1012900000BF4FF480711A48FFF70FFA0028F8D00A
:1012A00000BF4FF480711648FFF707FA0128F8D005
:1012B000FFF7A0FF2070FFF79DFF6070FFF79AFF18
:1012C000A070FFF797FFE070FFF794FF2071FEF723
:1012D000FDFF4FF480710A48FFF7FAF92078617832
:1012E0000844A1780844E17808442179884202D171
:1012F000012010BD01E00020FBE70020F9E700001D
:101300000008014021B1028842F04002028004E05E
:1013100002884FF6BF731A400280704770B50546C9
:101320000C46164610211048FFF7D0F9032000F0B4
:1013300091F8C4F3074000F08DF8C4F3072000F0E3
:1013400089F8E0B200F086F804E0FF2000F082F8AF
:1013500028706D1C3000A6F101018EB2F5D110216C
:101360000148FFF7B5F970BD0008014010B500F065
:10137000A7F810210648FFF7A9F9C72000F06AF87E
:1013800010210348FFF7A4F900F080F810BD000019
:101390000008014000B587B001212420FFF7BAFB07
:1013A00001210803FFF7B6FB01210846FFF7B2FB56
:1013B0002020ADF8040003208DF8060018208DF8D9
:1013C000070001A92148FFF7EDF84020ADF804001F
:1013D00001A91E48FFF7E6F88020ADF8040001A936
:1013E0001A48FFF7DFF81020ADF804008DF8070069
:1013F00001A91648FFF7D6F810211448FFF768F93D
:101400000020ADF808004FF48270ADF80A0000200B
:10141000ADF80C000220ADF80E000120ADF8100070
:101420004002ADF812000820ADF814000020ADF81D
:1014300016000720ADF8180002A9054800F05EF874
:1014400001210348FFF75EFF07B000BD000801401F
:101450000030014010B5044600BF02210A4800F0E8
:101460003FF80028F9D02146074800F045F800BFB2
:101470000121054800F034F80028F9D0024800F0B6
:1014800038F8C0B210BD00000030014010B5002493
:1014900010210A48FFF71AF90520FFF7DBFF00BF0C
:1014A000FF20FFF7D7FF044604F001000028F7D122
:1014B00010210248FFF70CF910BD000000080140A0
:1014C00010B510210548FFF701F90620FFF7C2FF0C
:1014D00010210248FFF7FCF810BD00000008014091
:1014E0000246002013890B400BB1012000E00020D0
:1014F00070470146888970478181704710B5002286
:10150000028802F441520B884C8823438C88234381
:10151000CC8823430C8923434C8923438C89234360
:10152000CC8923431A430280838B4FF2FF742340FC
:1015300083830B8A038210BD704710B500F002F858
:1015400010BD00000CB500200190009033480068E9
:1015500040F480303149086000BF3048006800F432
:10156000003000900198401C0190009818B9019833
:10157000B0F5A06FF1D12948006800F4003010B137
:101580000120009001E0002000900098012843D144
:101590002348006840F010002149086008460068B0
:1015A00020F0030008600846006840F00200086070
:1015B0001A4840681949486008464068486008462B
:1015C000406840F4806048600846406820F47C1021
:1015D00048600846406840F4E810486008460068E3
:1015E00040F08070086000BF0C48006800F0007098
:1015F0000028F9D00948406820F0030007494860F6
:101600000846406840F00200486000BF0348406858
:1016100000F00C000828F9D10CBD000000100240B9
:101620000020024010B50420FEF706FE4AF2A55144
:1016300088420CD0FFF720FD13A000F0A7FC00F0BB
:1016400099FA4AF2A5510420FEF704FE19E07B2026
:10165000FFF7FAFA18B113A000F098FC06E07A2020
:10166000FFF7F2FA10B118A000F090FC1EA000F0F5
:101670008DFCFFF7ADFD01210846FFF771FDFFF777
:101680009DFDFFF76DFA10BD0D0A5B4F4B5D2052BB
:10169000544320636F6E666967757265642E2E2EE3
:1016A0002E0000000D0A0A5B4F4B5D20506F7765DE
:1016B00072204F6E205265736574206F636375727C
:1016C0007265642E2E2E2E000D0A0A204578746550
:1016D000726E616C205265736574206F63637572FE
:1016E0007265642E2E2E2E000D0A204E6F206E6520
:1016F000656420746F20636F6E666967757265201C
:101700005254432E2E2E2E004FF46161B0FBF1F1A6
:101710000D4A11704FF46161B0FBF1F201FB12014F
:101720003C22B1FBF2F1094A11704FF46161B0FB48
:10173000F1F201FB12013C22B1FBF2F302FB1311A7
:10174000034A1170704700002C0000202D0000207B
:101750002E00002010B500F079FA10BD30B5144904
:10176000B1F1807F01D301201DE021F07F40401EB8
:101770004FF0E022506150170F22002807DA1307BC
:101780001D0E0C4B00F00F04241F1D5503E0130722
:101790001C0E094B1C5400BF00204FF0E02290614A
:1017A00007201061002008B100BFFEE730BD000037
:1017B0004019010018ED00E000E400E010B5134806
:1017C000006840F00100114908600846406810496F
:1017D00008400E494860084600680E4908400B4919
:1017E00008600846006820F48020086008464068C9
:1017F00020F4FE0048604FF41F008860FFF79DFE54
:101800004FF000600449086010BD00000010024065
:101810000000FFF8FFFFF6FE08ED00E00EB5012125
:101820000846FFF757F94FF0804000F043F84FF4B7
:101830007A70ADF804004720ADF800000020ADF844
:101840000600ADF8020069464FF0804000F040F914
:101850000121880700F01CF801221146900700F0D2
:101860002EF90121880700F019F80EBD10B50121ED
:10187000880700F013F940B10121880700F00BF848
:1018800002480088401C0149088010BD2400002047
:10189000CA4302827047CA430282704721B102885C
:1018A00042F00102028004E002884FF6FE731A4003
:1018B0000280704710B504466848844208D101216F
:1018C000C014FFF737F90021E014FFF733F9C4E043
:1018D000B4F1804F08D101210846FFF70BF9002130
:1018E0000120FFF707F9B8E05D48844208D10121E3
:1018F0000220FFF7FFF800210220FFF7FBF8ACE021
:101900005848844208D101210420FFF7F3F8002150
:101910000420FFF7EFF8A0E05348844208D10121EA
:101920000820FFF7E7F800210820FFF7E3F894E02C
:101930004E48844208D101211020FFF7DBF8002136
:101940001020FFF7D7F888E04948844208D10121E8
:101950002020FFF7CFF800212020FFF7CBF87CE014
:101960004448844208D101214014FFF7E3F80021E4
:101970006014FFF7DFF870E03F48844209D101218D
:10198000C804FFF7D7F800214FF40020FFF7D2F882
:1019900063E03A48844209D101210805FFF7CAF8FB
:1019A00000214FF48010FFF7C5F856E03448844218
:1019B00009D101214805FFF7BDF800214FF40010BF
:1019C000FFF7B8F849E02F48844208D101214020B0
:1019D000FFF790F800214020FFF78CF83DE02A48FF
:1019E000844208D101218020FFF784F80021802063
:1019F000FFF780F831E02548844208D101218015A5
:101A0000FFF778F80021A015FFF774F825E02048CB
:101A1000844209D101210804FFF78CF800214FF41A
:101A20008030FFF787F818E01A48844209D1012175
:101A30004804FFF77FF800214FF40030FFF77AF8F1
:101A40000BE01548844208D101218804FFF772F8A1
:101A500000214FF48020FFF76DF810BD002C0140ED
:101A60000004004000080040000C0040001000404E
:101A70000014004000340140004C0140005001407F
:101A80000054014000180040001C004000200040AD
:101A900000400140004401400048014030B502468A
:101AA000002000230024158A05EA0103958905EA30
:101AB000010413B10CB1012000E0002030BD1AB1C7
:101AC00083890B43838102E083898B438381704741
:101AD000002202881D4B98420ED01D4B98420BD01D
:101AE000B0F1804F08D01B4B984205D01A4B98425A
:101AF00002D01A4B984204D14FF68F731A404B888C
:101B00001A43174B984207D0164B984204D04FF611
:101B1000FF431A40CB881A4302808B8883850B8849
:101B200003850A4B98420BD0094B984208D00E4BC4
:101B3000984205D00D4B984202D00D4B984201D1EE
:101B40000B7A03860123838270470000002C01403A
:101B5000003401400004004000080040000C004038
:101B600000100040001400400040014000440140CB
:101B70000048014010B5FFF721FB00F03BF8044698
:101B8000FFF7FEFAFFF71AFB10BD00002DE9F04148
:101B900004460025002600274FF46160B4FBF0F5F1
:101BA000B4FBF0F100FB11403C21B0FBF1F64FF427
:101BB0006160B4FBF0F100FB11403C21B0FBF1F29D
:101BC00001FB12073B463246294602A000F0DEF92F
:101BD000BDE8F0810D0A4E4F572054696D653A20DB
:101BE00025302E32643A25302E32643A25302E329A
:101BF000640D0A0070B500BF00BF00BF084800F0C8
:101C0000C5F908A000F0C2F91026202400254FF4E1
:101C100061607043C4EB041100EB8100284470BD87
:101C2000942600080D0A2020506C656173652053CE
:101C3000657420486F7572730000000010B5FFF7DF
:101C40005BFA0446FFF7A2FF10BD000009480068D8
:101C5000401C0849086008460068401C08B900207C
:101C600008600548006820B103480068401E02492A
:101C700008607047700200206C02002000B585B03B
:101C8000012144F20400FEF745FF4FF40070ADF867
:101C9000100018208DF8130003208DF8120004A9FD
:101CA0001848FEF77FFC4FF48060ADF81000042068
:101CB0008DF8130004A91348FEF774FC4FF4E130CB
:101CC00000900020ADF80400ADF80600ADF8080063
:101CD000ADF80C000C20ADF80A0069460A4800F087
:101CE000DDF8012240F22551074800F0B1F801214A
:101CF000054800F077F84021034800F05BF805B094
:101D000000BD0000000801400038014010B540F25D
:101D10002551234800F072F8B8B34FF480512148A0
:101D2000FEF7D4FC1E4800F025F91F491F4A12781F
:101D300088541B4800F01EF9C4B20A2C01D10120BE
:101D400000E0002019490978952901DB012100E014
:101D50000021084378B10A2C06D11548007840F0DC
:101D60000100134908700BE01148007840F00200B0
:101D70000F49087004E00D480078401C0B490870BA
:101D800040F22551064800F01EF84FF480510548F6
:101D9000FEF79EFC4021024800F00CF810BD000048
:101DA0000038014000100140F803002068020020C4
:101DB0006902002001F40072B2F5007F00D100BF7B
:101DC000CA430280704710B50022002340F66A140F
:101DD000A14200D100BF0A1201249440A3B2DC4307
:101DE000048010BD21B1828942F40052828104E056
:101DF00082894DF6FF731A408281704770B50246A2
:101E0000002400230025002040F66A16B14200D1CC
:101E100000BFC1F3421501F01F03012606FA03F3C8
:101E2000012D02D19689334006E0022D02D1168A97
:101E3000334001E0968A33400C12012606FA04F47E
:101E40001688344013B10CB1012000E0002070BDB1
:101E5000F0B50346002400260025002040F66A174E
:101E6000B94200D100BF1846C1F3421401F01F0669
:101E7000012707FA06F5012C01D10C3004E0022CF1
:101E800001D1103000E014301AB107682F43076009
:101E900002E00768AF430760F0BD00002DE9F0479E
:101EA00086B005460E460024A24600BFA146002784
:101EB000B08900B100BF2F462C8A4CF6FF70044059
:101EC000F08804432C82AC894EF6F3100440B088AD
:101ED00031890843718908430443AC81AC8A4FF6C9
:101EE000FF400440B0890443AC8201A8FEF742FEE3
:101EF0001F48874202D1DDF810A001E0DDF80CA0F8
:101F0000A88900F4004040B10AEBCA0000EB0A10B7
:101F100031684900B0FBF1F807E00AEBCA0000EBBA
:101F20000A1031688900B0FBF1F86420B8FBF0F0CA
:101F300004012009642101FB1089A88900F40040F4
:101F400040B1322000EBC900B0FBF1F000F0070017
:101F5000044308E0322000EB09106421B0FBF1F0EB
:101F600000F00F0004432C8106B0BDE8F0870000AC
:101F70000038014001468888C0F308007047C1F36B
:101F800008028280704700BFFEE700000FB4054BD7
:101F900010B503A9044A029800F018F810BC5DF8C7
:101FA00014FB0000552300087402002002E008C85A
:101FB000121F08C1002AFAD170477047002001E0C3
:101FC00001C1121F002AFBD1704700002DE9FF4F0D
:101FD0008BB09A460F460546002606E025280BD012
:101FE00052460D9990476D1C761C28780028F5D133
:101FF0000FB03046BDE8F08F0024A04601226049B2
:1020000000E0044315F8013F203B02FA03F00842C8
:10201000F7D128782E2817D115F8010F44F00404C1
:102020002A280ED06FF02F022878A0F1300109295C
:102030000AD808EB880102EB410100EB01086D1C96
:10204000F2E757F8048B6D1C287869283ED006DC2F
:102050000028CDD063280BD0642804D136E0732843
:1020600010D075284BD052460D999047761C85E0CC
:1020700017F8040B8DF8000000208DF80100E946E8
:10208000012003E057F8049B4FF0FF3061074FF049
:10209000000401D40AE0641C44450DDA8442FADBF2
:1020A00019F804100029F6D106E0641C8442FCDB18
:1020B00019F804100029F8D1264404E019F8010B9E
:1020C00052460D999047641EF8D257E001CF4FF069
:1020D0000A0B002802DA40422D2102E0210504D536
:1020E0002B218DF82410012103E0E10705D02021E8
:1020F000F7E70DF1200908910CE00021F9E701CF85
:102100004FF00A0BF9E75946FEF73AF801F13002B1
:1021100009F8012D0028F6D1ADEB090000F1200BE4
:10212000600701D44FF00108D84502DDA8EB0B0091
:1021300000E000208046002406E009A85246005D29
:102140000D999047641C761C08988442F5DB04E0E6
:10215000302052460D999047761CB8F10001A8F145
:102160000108F5DC05E019F8010B52460D9990477E
:10217000761CBBF10001ABF1010BF4DC6D1C34E704
:10218000092801002DE9F04700208246814680465B
:102190000746064605460024C3E00025002000EB64
:1021A00044006549085C05432D02002000EB440013
:1021B000401C085C05432D02202000EB4400085C15
:1021C00005432D02202000EB4400401C085C054321
:1021D0000026402000EB4400085C06433602402005
:1021E00000EB4400401C085C06433602602000EB14
:1021F0004400085C06433602602000EB4400401CAB
:10220000085C06434D480560466000274C4810F8BE
:10221000140007433F02012000EB44004849085CDA
:1022200007433F02202000EB4400085C07433F02C5
:10223000202000EB4400401C085C07434FF00008DE
:10224000402000EB4400085C40EA08084FEA0828F8
:10225000402000EB4400401C085C40EA08084FEABC
:102260000828602000EB4400085C40EA08084FEAB8
:102270000828602000EB4400401C085C40EA080885
:1022800030480760C0F804804FF000092E4810F86D
:10229000140040EA09094FEA0929012000EB440033
:1022A0002949085C40EA09094FEA0929202000EB86
:1022B0004400085C40EA09094FEA0929202000EBA4
:1022C0004400401C085C40EA09094FF0000A402025
:1022D00000EB4400085C40EA0A0A4FEA0A2A402060
:1022E00000EB4400401C085C40EA0A0A4FEA0A2A54
:1022F000602000EB4400085C40EA0A0A4FEA0A2A20
:10230000602000EB4400401C085C40EA0A0A0F48C9
:10231000C0F80090C0F804A02046FEF7DBFC601C6B
:10232000C4B2102CFFF639AF4FF480710848FEF7A5
:10233000CFF9BDE8F08700007802002030000020CF
:10234000F802002038000020780300204000002020
:102350000010014070B504460D46E1B20548FFF794
:102360000EFE00BF0348008800F080000028F9D06E
:10237000204670BD0038014008B5FFF7EFF9FFF7C0
:102380007DFC71A0FFF702FEFFF704F8FEF772F87C
:10239000FFF744FAFDF76EFFFEF7B6F9FEF701FB13
:1023A000FEF774FAFFF73EF9FFF748FC7348FEF7B3
:1023B00053FF01280AD17148C07800906F48837894
:1023C000427801786EA0FFF7E1FD02E077A0FFF709
:1023D000DDFDB8E07C480078012836D17A480078E5
:1023E00000F0FE0078490870784979A0FFF7CEFD2B
:1023F0007BA1764800F03AF910B17CA0FFF7C6FD4A
:102400007BA1724800F032F920B1FEF7AFFF7FA048
:10241000FFF7BCFD84A16D4800F028F928B17BA02E
:10242000FFF7B4FD71A0FFF7B1FD09E00020674997
:102430007F4A127888547E480078401E7C49087094
:102440007B4800780028F1D11BE05F480078022823
:1024500017D15D48007800F0FD005B49087075A059
:10246000FFF794FD09E000205849714A127888541A
:102470006F480078401E6E4908706D48007800284B
:10248000F1D171480078C8B970480068B0F57A7F1A
:102490000AD33A48FEF7E0FEFEF72EFE0446FFF7A9
:1024A00033F9002069490860344A91781078684A05
:1024B0001378684A1278FDF729FF44E0FFF762FEBF
:1024C00062480068B0F57A7F3DD300205F4908601C
:1024D0004FF400716048FEF7FBF84FF480715E48DE
:1024E000FEF7F4F85848007800F0010030B15B487E
:1024F0000068C10180225A48FEF710FF5248007858
:1025000000F00200022806D154480068C101802270
:102510005448FEF703FF4C48007800F004000428FC
:1025200006D14E480068C10180224F48FEF7F6FEF2
:102530004A480068401C494908600846006803286A
:1025400001D30020086045E70A0A2A2A2A2A2A2AF3
:102550002A2A54686973206973204D61786972650D
:1025600020446973706C61792053797374656D2AA6
:102570002A2A2A2A2A2A2A2A2A0000001C000020A5
:102580005B4F4B5D20CAAAB6C8CEAA25642E25642F
:1025900020A3A5524820A3ACCEC2B6C8CEAA2025FF
:1025A000642E2564A1E6200D0A0000005B4552520E
:1025B0004F525D20526561642044485431312045BA
:1025C00052524F52210D0A0069020020F8030020E8
:1025D000537472696E672069733A25730A000000AC
:1025E00041542B5253540D0A000000004F4B000081
:1025F00041542B5350495F464C4153485F42756CE0
:102600006B45726173650D0A000000005B4F4B5D06
:10261000205350495F464C4153485F42756C6B45AF
:1026200072617365204F4B0041542B410000000044
:10263000680200200D0A2044617461206F76657283
:10264000666C6F77200D0A0028000020240000200F
:102650002D0000202C000020001001401800002058
:1026600078020020F802002078030020F0B502462E
:102670000B4614461946012007E014F8016B11F8C7
:10268000017BBE4201D0002002E00D78002DF4D184
:1026900000BFF0BD0D0A3D3D3D3D3D3D3D3D3D3D55
:1026A0003D3D3D3D54696D652053657474696E67A9
:1026B000733D3D3D3D3D3D3D3D3D3D3D3D3D3D3D14
:1026C0003D3D3D3D3D3D3D3D3D3D3D3D3D3D3D3D3A
:1026D0003D3D3D3D3D3D0000F82600080000002046
:1026E00078020000D0010008AC2700087802002022
:1026F00018060000BC1F0008412D0102030404005D
:102700000914060708090204060802230145196C8A
:102710006010451AC860C0130CD842E05B079044B3
:1027200063702163382D031B1812720C531C064B67
:102730004036113CE062184C44D8DDF00DFD03ED4D
:1027400080388069804C182442013A2422115C08A8
:10275000380801523E1A3C1B680802040810204247
:102760007E105009020418040242423C500C040C32
:102770000C142424447F04041F480B7E40404078FE
:102780004402024244621F182440405C62454B22CE
:102790001C202F4204040808100179603A2485495E
:0C27A000501B38440B5D463A020290D1F9
:0400000508000131BD
:00000001FF
